{
  "contractName": "Transaction",
  "abi": [
    {
      "inputs": [],
      "payable": false,
      "stateMutability": "nonpayable",
      "type": "constructor"
    },
    {
      "constant": true,
      "inputs": [
        {
          "internalType": "uint256",
          "name": "",
          "type": "uint256"
        }
      ],
      "name": "datas",
      "outputs": [
        {
          "internalType": "uint256",
          "name": "light",
          "type": "uint256"
        },
        {
          "internalType": "uint256",
          "name": "timestamp",
          "type": "uint256"
        }
      ],
      "payable": false,
      "stateMutability": "view",
      "type": "function"
    },
    {
      "constant": true,
      "inputs": [],
      "name": "datasCount",
      "outputs": [
        {
          "internalType": "uint256",
          "name": "",
          "type": "uint256"
        }
      ],
      "payable": false,
      "stateMutability": "view",
      "type": "function"
    },
    {
      "constant": false,
      "inputs": [
        {
          "internalType": "uint256",
          "name": "timestamp",
          "type": "uint256"
        },
        {
          "internalType": "uint256",
          "name": "light",
          "type": "uint256"
        }
      ],
      "name": "insertdata",
      "outputs": [],
      "payable": false,
      "stateMutability": "nonpayable",
      "type": "function"
    },
    {
      "constant": true,
      "inputs": [],
      "name": "getCount",
      "outputs": [
        {
          "internalType": "uint256",
          "name": "",
          "type": "uint256"
        }
      ],
      "payable": false,
      "stateMutability": "view",
      "type": "function"
    },
    {
      "constant": true,
      "inputs": [
        {
          "internalType": "uint256",
          "name": "index",
          "type": "uint256"
        }
      ],
      "name": "getValue",
      "outputs": [
        {
          "internalType": "uint256",
          "name": "",
          "type": "uint256"
        }
      ],
      "payable": false,
      "stateMutability": "view",
      "type": "function"
    },
    {
      "constant": true,
      "inputs": [
        {
          "internalType": "uint256",
          "name": "index",
          "type": "uint256"
        }
      ],
      "name": "getTime",
      "outputs": [
        {
          "internalType": "uint256",
          "name": "",
          "type": "uint256"
        }
      ],
      "payable": false,
      "stateMutability": "view",
      "type": "function"
    }
  ],
  "bytecode": "0x608060405234801561001057600080fd5b506102a5806100206000396000f3fe608060405234801561001057600080fd5b50600436106100625760003560e01c80630ff4c9161461006757806346613080146100a957806373627826146100e15780638dc77a8c14610123578063a87d942c14610141578063c0a094fd1461015f575b600080fd5b6100936004803603602081101561007d57600080fd5b81019080803590602001909291905050506101a8565b6040518082815260200191505060405180910390f35b6100df600480360360408110156100bf57600080fd5b8101908080359060200190929190803590602001909291905050506101c8565b005b61010d600480360360208110156100f757600080fd5b810190808035906020019092919050505061021d565b6040518082815260200191505060405180910390f35b61012b61023d565b6040518082815260200191505060405180910390f35b610149610243565b6040518082815260200191505060405180910390f35b61018b6004803603602081101561017557600080fd5b810190808035906020019092919050505061024c565b604051808381526020018281526020019250505060405180910390f35b600060016000838152602001908152602001600020600001549050919050565b6000808154809291906001019190505550604051806040016040528082815260200183815250600160008054815260200190815260200160002060008201518160000155602082015181600101559050505050565b600060016000838152602001908152602001600020600101549050919050565b60005481565b60008054905090565b6001602052806000526040600020600091509050806000015490806001015490508256fea265627a7a7231582034182881770d09b5d9ce972f18bb3e6a23f6cee7a7862b9ad407c274b73d2d4564736f6c63430005100032",
  "source": "pragma solidity ^0.5.0;\r\n\r\ncontract Transaction {\r\n    uint256 public datasCount;\r\n\r\n    mapping(uint256 => data) public datas; \r\n\r\n    struct data {\r\n        uint256 light; //光强\r\n        uint256 timestamp; //时间戳\r\n    }\r\n\r\n    //添加书本\r\n    function insertdata(uint256 timestamp,uint256 light) public{\r\n        datasCount++;\r\n        datas[datasCount] = data(light, timestamp);\r\n    }\r\n\r\n    constructor() public {\r\n    }\r\n\r\n    function getCount() public view returns(uint256){\r\n        return datasCount;\r\n    }\r\n    \r\n    function getValue(uint256 index) public view returns(uint256){\r\n        return datas[index].light;\r\n    }\r\n\r\n    function getTime(uint256 index) public view returns(uint256){\r\n        return datas[index].timestamp;\r\n    }\r\n}\r\n",
  "sourcePath": "C:/Users/23779/Desktop/blockchain/public/contracts/Transaction.sol",
  "compiler": {
    "name": "solc",
    "version": "0.5.16+commit.9c3226ce.Emscripten.clang"
  },
  "schemaVersion": "3.4.1",
  "updatedAt": "2021-06-22T15:47:29.318Z",
  "networkType": "ethereum",
  "devdoc": {
    "methods": {}
  },
  "userdoc": {
    "methods": {}
  }
}